:020000040000FA
:0400000018EF00F005
:100008007F829EEC0EF00F4A102A300E0F180AE17C
:10001800750E1018D8A406D0000E106E000E0F6EC4
:1000280041EC0EF07F921100B6EF09F06B6E64D1CF
:10003800120E356E100E03D0770E356E300E346EFC
:1000480007D06B500C0AD8B4F7D7020AD8B4F0D747
:10005800302A50D12E50D8A406D0020EB8EC0CF09D
:10006800010E2E6E47D13550800923EC0DF02E6A13
:100078002F6AEED7040E28EC09F088D02E50D8A4A9
:1000880004D0040EB8EC0CF0EBD72F507F0B23EC08
:100098000DF0EDD70A0E28EC09F078D02E50D8A430
:1000A80004D00A0EB8EC0CF0DBD72F50800923ECF3
:1000B8000DF02E6ACDD72E50D8A404D0010EB8EC7E
:1000C8000CF0CED7000E23EC0DF02E6A000E0C6E4D
:1000D800000E0B6EBDD75C500B5C000E0C58D8B0F0
:1000E800B7D72E50D8A404D0090EB8EC0CF0B8D766
:1000F8005B500B24D96EDA6ADF5023EC0DF00B4A03
:100108000C2A2E6AF7D02E50D8A404D0010EB8ECD1
:100118000CF0A6D76B5023EC0DF0CBD70C0E6B1858
:10012800D8B404D0000E626E0C0E03D0000E626EBE
:100138000A0E616E61C030F0DDD00D0E28EC09F0BA
:1001480025D02E50D8A404D00D0EB8EC0CF088D7CA
:100158002F50800923EC0DF0ACD70B680C6878D7CA
:10016800040E28EC09F058D00B06D8A00C060B504A
:100178000C10D8A432B07CD7325034140009D8A45B
:1001880077D73006B7D00D0E28EC09F02F6E60D760
:100198002E50D8A404D00D0EB8EC0CF061D72F5017
:1001A8007F0B23EC0DF085D70B500C10D8A404D08E
:1001B800000E646E1C0E03D0000E646E120E636E89
:1001C80063C030F097D0060E28EC09F01B0B316E97
:1001D8003FD73150D8A402D07B6A3AD7020E7B6E43
:1001E8001C0E81D0325035145F6E5FA031D7010EDE
:1001F8007B6E2ED70C0E6B18D8B404D0000E666E2A
:100208001C0E03D0000E666E160E656E65C030F0CB
:1002180071D00A0E28EC09F0326E1AD70C0E28ECB1
:1002280009F0070B336E14D73350D8A407D03250D7
:10023800080DF3CF67F0F4CF68F016D0335032C012
:100248005FF0606AD8905F366036D8905F36603667
:10025800D8905F3660365F26000E6022F80E5F2465
:10026800676EFF0E6020686E5E50D96EDA6A67C0EE
:10027800DEFF68C0DDFF3250D8A402D0010E04D0E2
:10028800100E326423D7100E326E20D732505F6EB4
:10029800606A5F500B5C60500C58D8A004D0000E08
:1002A8006A6E1C0E03D0000E6A6E1A0E696E69C063
:1002B80030F032505F6E606A5F500B5C60500C58D3
:1002C800D8A018D05D500B24D96EDA6ADF6A12D034
:1002D8005D500B24D96EDA6A090E28EC09F0DF6E3E
:1002E8000B4A0C2A190E306E05D02F6A346A356A0B
:1002F800306A442A7B5012003050000AD8B4A1D684
:10030800010AD8B4A7D6030AD8B4B4D6010AD8B417
:10031800B5D6070AD8B4BED6010AD8B4BFD6030AE0
:10032800D8B4C9D6010AD8B4D6D60F0AD8B4EBD6F1
:10033800010AD8B4F3D6030AD8B4FFD6010AD8B450
:1003480000D7070AD8B409D7010AD8B409D7030ACD
:10035800D8B40AD7010AD8B416D71F0AD8B418D700
:10036800010AD8B421D7030AD8B42DD7010AD8B4C2
:1003780030D7070AD8B436D7010AD8B43BD7030A0E
:10038800D8B447D7010AD8B449D70F0AD8B44CD73C
:10039800010AD8B47BD7030AD8B49AD7060AD8B4C6
:1003A800A4D7A8D785EC0EF0000E606E000EDAEC2C
:1003B80008F0C10E526E43EC0CF0B9EC0AF0200EB6
:1003C800B9EC0AF01D50300FB9EC0AF01C50300F90
:1003D800B9EC0AF03A0EB9EC0AF01B50300FB9EC40
:1003E8000AF01A50300FB9EC0AF0200EB9EC0AF0F6
:1003F800310EB9EC0AF02D0EB9EC0AF00A0E01180C
:10040800D8B407D0300E0124696E6A6A000E6A22D9
:1004180004D0000E6A6E410E696E6950B9EC0AF09C
:10042800200EB9EC0AF0320EB9EC0AF02D0EB9EC38
:100438000AF00A0E0218D8B407D0300E02246B6EE8
:100448006C6A000E6C2204D0000E6C6E410E6B6E4E
:100458006B50B9EC0AF0010E606E000EDAEC08F091
:10046800330EB9EC0AF02D0EB9EC0AF00A0E031897
:10047800D8B407D0300E03246D6E6E6A000E6E225B
:1004880004D0000E6E6E410E6D6E6D50B9EC0AF020
:10049800200EB9EC0AF0340EB9EC0AF02D0EB9ECC6
:1004A8000AF00A0E0418D8B407D0300E04246F6E70
:1004B800706A000E702204D0000E706E410E6F6ECE
:1004C8006F50B9EC0AF0200EB9EC0AF0350EB9EC11
:1004D8000AF02D0EB9EC0AF00A0E0518D8B407D0A8
:1004E800300E0524716E726A000E722204D0000E5E
:1004F800726E410E716E7150B9EC0AF0200EB9ECB3
:100508000AF0360EB9EC0AF02D0EB9EC0AF00A0E14
:100518000618D8B407D0300E0624736E746A000E1D
:10052800742204D0000E746E410E736E7350B9ECD1
:100538000AF012006CC052F08BEC08F0776E772846
:10054800D8B484D0B20E536E1F0E546EC0EC0BF0AC
:100558001850D8B411D06CC052F093EC0BF00009CD
:10056800D8B40AD0186AC90E536E1F0E546EC0EC68
:100578000BF085EC0EF063D0D80E536E1F0E546E40
:10058800C0EC0BF0000E706E000E6F6E7750050D0C
:10059800550EF3246D6E1E0EF4206E6E6F506D2690
:1005A80070506E226DC0F6FF6EC0F7FF6F50C10F1E
:1005B800D96EDA6A0800F5CFDFFF6F4A702A70BE7D
:1005C800E5D7705004E1050E6F5CD8A0DFD7000EA8
:1005D800726E000E716E7750060DF350DC0F7124A9
:1005E800D96EDA6A7150010FE16EE26ADFCFE7FF78
:1005F800714A722A72BEEFD7725004E1060E715C1E
:10060800D8A0E9D7010E186E77C013F0000E746EEB
:10061800000E736E7350010FD96EDA6ADF50526E96
:100628007350D9EC0EF0734A742A74BEF3D7745021
:1006380004E1060E735CD8A0EDD7010E176E1350B7
:10064800FDEC06F0135038EC08F029D08F0E536EED
:100658001F0E546EC0EC0BF0000E766E000E756E19
:100668006C507524D96EDA6ADF5018EC0CF076BE3F
:1006780006D076500AE1040E755CD8B006D0FD0E9F
:10068800536E1F0E546EC0EC0BF0754A762A76BE78
:10069800E7D7765004E1050E755CD8A0E1D7E60EE1
:1006A800536E1F0E546EC0EC0BF01200786A94D093
:1006B8002A50D8A406D00D0EB8EC0CF0010E2A6E04
:1006C8001200070E23EC0DF02A6A20EE00F0260E29
:1006D800DF6E442A1200000E5B6E010E5C6E000E87
:1006E8005D6E4C0E5E6E0C0E1AEC00F0436E12003E
:1006F8004350D8A405D0100E4C184D10D8B4E9D7E3
:10070800446A12002A50D8A404D00D0EB8EC0CF09C
:10071800D5D7000E23EC0DF02A6A930E0001C66FA0
:10072800200EC76F080E5C6E080E78EC0EF0D1D75D
:10073800C60E5B6E020E5C6EC60E5D6E4A0E5E6E77
:100748000C0E1AEC00F0436E12004350D8A412D0DD
:10075800796A7950C60FD96EDA6ADF50781A792A21
:10076800030E7964F6D778500001CA19D8B402D0BC
:10077800020E436E0001CB6B4350D8B4AAD7070EC4
:10078800446E1200C60E6C6E9EEC02F0A2D7500E9C
:100798000001D06FD16BD00E5F6E020E606ED20E6C
:1007A800616ED4EC07F0800E5C6E080E78EC0EF0EB
:1007B80090D7D00E5B6E040E5C6ED00E5D6E4A0E46
:1007C8005E6E0C0E1AEC00F0436E1200080E5C6EA2
:1007D800080E78EC0EF094D74450000AD8B468D7C5
:1007E800010AD8B478D7030AD8B482D7010AD8B492
:1007F80089D7070AD8B49CD7010AD8B4A6D7030A60
:10080800D8B4C0D7010AD8B4C2D70F0AD8B4D1D740
:10081800010AD8A41200DAD7666E6650AD0FD96EF9
:10082800DA6ADF50D8A40BD0000E526E6650F3EC93
:100838000AF06650B30FD96EDA6ADF6A12006650A2
:10084800AD0FD96EDA6A0A0EDE18D8A46DD0010E83
:10085800526E6650F3EC0AF0ECD76650AD0FD96EC5
:10086800DA6ADF505F6E5FC060F0616A626A636A6D
:100878006650BB0FD96EDA6ADF5092EC0CF060500C
:10088800525C615053586250545863505558D8A020
:100898001200000E526E6650F3EC0AF06650BB0F61
:1008A800D96EDA6ADF5066EC0EF06650B30FD96E77
:1008B800DA6ADF2A12000A0E5F6E000E606E66505A
:1008C800AD0FD96EDA6ADF50616E61505F5C626E9F
:1008D8006050D8A06004636E646A63BE64066450A6
:1008E800656E6650BB0FD96EDA6ADF5092EC0CF079
:1008F8006250525C63505358645054586550555870
:10090800D8A01200010E526E6650F3EC0AF0665041
:10091800BB0FD96EDA6ADF5066EC0EF06650B30F83
:10092800D96EDA6ADF0612006650B30FD96EDA6A3A
:10093800DF50000AD8B491D7010AD8A41200BBD757
:1009480072D08C968B9A8C988C80266A040E296EAD
:1009580012008C968B9A8C908C88010E266E040E51
:10096800296E12008C968C988C908B8A020E266EBB
:10097800040E296E12008B9A8C988C908C86030E2C
:10098800266E040E296E120083A483B202D082A8B8
:1009980005D0505066EC0EF0292A1200242A030EC6
:1009A800246401D0246A24C029F01200505092EC2B
:1009B8000CF055505410531004E10A0E525CD8A0A4
:1009C800120083A483B2E8D782B8E6D729061200BA
:1009D800256883A402D0256A08D083A202D0010E1C
:1009E80003D082A802D0020E256E2528D8A4D4D719
:1009F800ADD72650030D840EF3245F6E1E0EF4202F
:100A0800606E25505F26000E60225FC0F6FF60C052
:100A1800F7FF0800F5CF28F0BEEC0EF00009D8A4C7
:100A28001200296A12002950000AD8B48AD7010A8C
:100A3800D8B48FD7030AD8B495D7010AD8B49BD7AE
:100A4800070AD8B4A1D7010AD8B4B0D7030AD8B4D2
:100A5800BFD7010AD8A41200CCD7556E5ED0550E68
:100A6800536E1F0E546EC0EC0BF0222A12002F0E8C
:100A7800556412003A0E556012005550D00F1D6E85
:100A88005550C7EC0EF0F1D72F0E556412003A0EF0
:100A9800556012005550D00F1C6E5550C7EC0EF023
:100AA800E4D78D0E536E1F0E546EC0EC0BF0DDD7DD
:100AB8002F0E556412003A0E556012005550D00F93
:100AC8001B6E5550C7EC0EF0D0D72F0E5564120090
:100AD8003A0E556012005550D00F1A6E5550C7EC9B
:100AE8000EF0C3D73D0E536E1F0E546EC0EC0BF0C4
:100AF800BCD70D0E5518D8A412006A0E536E1F0EDF
:100B0800546EC0EC0BF0B1D71850D8B402D0010E17
:100B1800176E020E236E226A12002250000AD8B401
:100B28009ED7010AD8B4A3D7030AD8B4ADD7010A0F
:100B3800D8B4B7D7070AD8B4BBD7010AD8B4C5D731
:100B4800030AD8B4CFD7010AD8B4D3D70F0AD8A488
:100B58001200DAD760D0BEEC0EF00009D8B412004B
:100B6800142A1200BEEC0EF00009D8A41200F8D71F
:100B78004F0E526EFCEC0EF01850D8B40AD0300E5E
:100B88004F6407D0370E4F6004D04F50CF0F166E0A
:100B9800E7D7146A1200BEEC0EF0DFD7BEEC0EF0F9
:100BA800E3D74F0E526EFCEC0EF01850D8B412007A
:100BB8002F0E4F6403D0390E4F6404D02A0E4F18FD
:100BC800D8A412002A0E4F18D8B407D0D00E4F243C
:100BD800546E556AFF0E552204D0000E556E0A0E4B
:100BE800546E54C015F01350060DF350DC0F162444
:100BF800D96EDA6A15C0DFFF1650010FD96EDA6AAE
:100C080015C0DFFF15C052F01650D9EC0EF0146A6B
:100C1800010E176E12001450000AD8B49CD7010AAE
:100C2800D8B4A0D7030AD8B4A3D7010AD8B4B3D785
:100C3800070AD8B4B3D7010AD8A41200B2D761D032
:100C4800BEEC0EF00009D8B412004E5066EC0EF05F
:100C5800122A12004E5092EC0CF05550541006E136
:100C6800F40E525C010E5358D8A004D04E5066ECD6
:100C78000EF0112ABEEC0EF00009D8A412004F0E97
:100C8800526EFCEC0EF0230E4F18D8B4E1D71206C2
:100C98001200030E116004D0010E1F6E236A2ED0BD
:100CA800000E606E000E5F6E000E626E000E616ECA
:100CB8005F50060DF350DC0F6124D96EDA6ADF6AE3
:100CC8006150010FD96EDA6ADF6A614A622A62BE30
:100CD800EFD7625004E1060E615CD8A0E9D75F4AFD
:100CE800602A60BEE1D7605004E1060E5F5CD8A0C0
:100CF800DBD71850D8B402D0010E176E116A126AE9
:100D080012001250000AD8B49BD7010AD8B4A2D74F
:100D1800030AD8A41200BDD76E6A6E0E526EE1ECBB
:100D28000EF06E50D0EC0EF03CEC0AF01BEC0EF01E
:100D380055D0310E6E18D8B408D0320E6E18D8B40B
:100D480004D0330E6E18D8A412006E50C7EC0EF003
:100D58006EC01EF0232A226A12001850D8B404D09C
:100D68001350FDEC06F006D07D0E536E1F0E546E28
:100D7800C0EC0BF0232A1200000E6D6E010E6C6E93
:100D88006C50FDEC06F06C5038EC08F0FA0E536E1F
:100D98001F0E546EC0EC0BF06C4A6D2A6DBEF0D776
:100DA8006D50E8E1060E6C5CD8B0E4D7E9D76E5018
:100DB80031EC05F012001E50310AD8B4CED7030A20
:100DC800D8B4DAD7010AD8A41200F1D7E60E536EC8
:100DD8001F0E546EC0EC0BF0236A12002350000A59
:100DE800D8B4A7D7010AD8B4E6D7030AD8A4120002
:100DF800EDD76B6EA90E536E1F0E546EC0EC0BF040
:100E08006B50050D550EF324F66E1E0EF420F76E8A
:100E18000800F55018EC0CF0FD0E536E1F0E546EC2
:100E2800C0EC0BF06B50050D010EF326000EF422FA
:100E3800550EF324F66E1E0EF420F76E0800F550DA
:100E480018EC0CF0FD0E536E1F0E546EC0EC0BF038
:100E58006B50050D020EF326000EF422550EF324F6
:100E6800F66E1E0EF420F76E0800F55018EC0CF024
:100E7800FD0E536E1F0E546EC0EC0BF06B50050D3B
:100E8800030EF326000EF422550EF324F66E1E0E02
:100E9800F420F76E0800F55018EC0CF0FD0E536EB8
:100EA8001F0E546EC0EC0BF06B50050D040EF326AC
:100EB800000EF422550EF324F66E1E0EF420F76E83
:100EC8000800F55018EC0CF01200676E510E526EC7
:100ED80044EC0DF067C049F066C048F0466A476ABE
:100EE800929892969294000E696E000E686E000EAB
:100EF800606E640E5F6E515062EC0DF0030E7DEC77
:100F08000AF0000E606E050E5F6E515062EC0DF037
:100F1800030E7DEC0AF0000E606E010E5F6E5150FC
:100F280062EC0DF0030E7DEC0AF0000E606E010E0F
:100F38005F6E515062EC0DF0020E7DEC0AF0000E6F
:100F4800606E010E5F6E515062EC0DF0280EB0EC31
:100F58000DF001EC0DF0080EB0EC0DF001EC0DF009
:100F6800010EB0EC0DF0000E606E030E5F6E515076
:100F780062EC0DF001EC0DF0060EB0EC0DF001EC9A
:100F88000DF00F0EB0EC0DF0684A692A69BEAFD7B4
:100F9800695005E1020E685CD8B01200A8D71200AB
:100FA80052D0040E5C6E050E78EC0EF0800E5C6E6E
:100FB8000A0E92EC0EF03F6A020E7D6E120060502F
:100FC8003F5CD8B013D03D50D8A406D0090EB8EC79
:100FD8000CF0010E3D6E12005F503F24D96EDA6AA4
:100FE800DF5023EC0DF03F2A3D6A1200030E7D6EA0
:100FF80012003D50D8A404D0010EB8EC0CF0E9D78B
:10100800030E23EC0DF03D6A040E7D6E1200050EF2
:1010180028EC09F03E6E3EA41200050E7D6E12000B
:101028006150D96EDA6A220E28EC09F0DF6E615041
:10103800D96EDA6A010ED926210E28EC09F0DF6E86
:10104800010E7D6E12007D50010AD8B4AAD7030A9A
:10105800D8B4B5D7010AD8B4CCD7070AD8B4D7D7EB
:10106800010AD8A41200DCD75C6EF20E536E1F0E74
:10107800546EC0EC0BF0000E5E6E000E5D6E5D509F
:101088005E10D8B406D0F60E536E1F0E546EC0EC28
:101098000BF04C0E586E5D50300F596E3A0E5A6E6A
:1010A8005B6A580E536E546AC0EC0BF05C50060D28
:1010B800F350DC0F5D24D96EDA6A0A0EDE18D8B454
:1010C80010D05C50060DF350DC0F5D24D96EDA6A3F
:1010D800DF50556E300E5524566E576A000E572253
:1010E80004D0000E576E410E566E56C058F0596A1D
:1010F800580E536E546AC0EC0BF05D4A5E2A5E507F
:1011080005E1060E5D5CD8B01200B9D71200000EDA
:101118005B6E000E5A6E000E596E010E586E000E70
:101128005D6E000E5C6E52505C24D96EDA6ADF5038
:10113800536E050E5A02F3CF54F0F4CF55F05B020C
:10114800F3505526550E5424566E1E0E5520576ED4
:101158005C5056265D50572256C0F6FF57C0F7FF21
:101168000800F5505318D8B405D0000E596E000E7B
:10117800586E0AD05C4A5D2A5DBED5D75D5004E141
:10118800050E5C5CD8A0CFD758505910D8B402D0FF
:101198005A5012005A4A5B2A5BBEBDD75B5004E125
:1011A800060E5A5CD8A0B7D7FF0E1200676E36D06D
:1011B8006050D8B404D0000E646E400E03D0000E08
:1011C800646E000E636E67506324656E000E6420C3
:1011D800666E2FD067C065F0666A6004D8A402D036
:1011E800400E05D0020E6018D8A404D048506526D9
:1011F800000E0ED0030E6018D8A41BD04850616EA4
:10120800626A400E6126000E6222615065266250B5
:1012180066220FD067C065F0666A0BD04950010A94
:10122800D8B4F8D7030AD8B4C3D7060AD8B4D2D7E3
:10123800F1D701EC0DF065508009B0EC0DF060C0FD
:1012480047F067C046F01200546E000E586E000E4C
:10125800576E8A908A92545054247E0B526E536A69
:10126800800E5210556E5350566E000E5A6E080E70
:10127800596E55AE03D0526A522A01D0526A523280
:1012880052328C5052187F0B52188C6E8A80D8902C
:10129800553656368A905906D8A05A0659505A10CB
:1012A800D8A4E7D7000E5A6E080E596E8A80D890D7
:1012B8005736583683AC03D0526A522A01D0526A44
:1012C800525057128A905906D8A05A0659505A10A7
:1012D800D8A4ECD78A828A8057501200596E8A9017
:1012E8008A92595059247E0B5A6E080E5B6E5AAE7C
:1012F80003D0586A582A01D0586A583258328C504C
:1013080058187F0B58188C6E8A80D8905A36030E5E
:10131800F3EC0DF08A90030EF3EC0DF05B065B50D6
:10132800D8A4E5D7080E5B6E57AE03D0586A582A82
:1013380001D0586A583258328C5058187F0B5818B8
:101348008C6E8A80D8905736030EF3EC0DF08A9095
:10135800030EF3EC0DF05B065B50D8A4E5D78A8248
:101368008A801200BA0EF66E190EF76E000EF86E2D
:1013780001EE00F010EE48F00900F5CFEEFFE55061
:10138800E150FAE1A80EF66E1C0EF76E000EF86E2C
:1013980000EEDCF010EE24F00900F5CFEEFFE5508A
:1013A800E150FAE1220EF66E1E0EF76E000EF86E90
:1013B80000EE7BF010EE04F00900F5CFEEFFE550EB
:1013C800E150FAE100EE80F05C0EEE6AE806FDE11D
:1013D80000EE01F0510EEE6AE806FDE17F907F9283
:1013E800000EF86E0001F9EF09F00DEC0FF0C9ECF2
:1013F8000DF0AAEC0EF02EEC0EF008EC0EF008EC56
:101408000FF0ECEC0BF0100E666E020E69EC07F0B4
:1014180085EC0EF002EC0FF094928BB203D07A6A4E
:101428007A2A01D07A6A7A468B507A18FD0B7A1894
:101438008B6EE9EC0EF023EC06F090EC06F0AEECC7
:1014480005F0A4EC04F0000E10EC04F0010E10EC12
:1014580004F0020E10EC04F0030E10EC04F0040E7D
:1014680010EC04F0050E10EC04F05AEC03F0D5D79C
:101478001850D8A41FD0000E526E000ED9EC0EF0F2
:10148800000E526E010ED9EC0EF0000E526E020ED6
:10149800D9EC0EF0000E526E030ED9EC0EF0000ED1
:1014A800526E040ED9EC0EF0000E526E050ED9ECF9
:1014B8000EF0120001C052F0000ED9EC0EF002C07E
:1014C80052F0010ED9EC0EF003C052F0020ED9EC26
:1014D8000EF004C052F0030ED9EC0EF005C052F025
:1014E800040ED9EC0EF006C052F0050ED9EC0EF041
:1014F8001200536E969496929690929A8994899631
:101508008988898853A603D0526A522A01D0526A20
:10151800524652468D505218FB0B52188D6E53A4EA
:1015280003D0526A522A01D0526A52468D5052183C
:10153800FD0B52188D6E53A203D0526A522A01D065
:10154800526A8D505218FE0B52188D6E53A003D05C
:10155800526A522A01D0526A523A52468950521857
:10156800DF0B5218896E89981200686E01EC0DF035
:10157800685097EC0DF0462A030E4918D8A40FD0EE
:10158800130E46641200466A472A030E476401D0C8
:10159800476A47C060F04650DAEC08F01200020EC5
:1015A8004918D8A40FD0270E46641200466A472A65
:1015B800010E476401D0476A47C060F04650DAEC34
:1015C80008F012004704D8A41200270E466401D080
:1015D800466A47C060F04650DAEC08F01200536ED5
:1015E80024D052B002D08A9E01D08A8E120052B006
:1015F80002D08A9C01D08A8C120052B002D08A9AFA
:1016080001D08A8A120052B002D08A9801D08A8802
:10161800120052B002D08A9601D08A86120052B0C7
:1016280002D08A9401D08A8412005350000AD8B498
:10163800D8D7010AD8B4DBD7030AD8B4DED7010A51
:10164800D8B4E1D7070AD8B4E4D7010AD8A412005D
:10165800E6D7536E53A603D0526A522A01D0526A73
:10166800524652468D505218FB0B52188D6E53A499
:1016780003D0526A522A01D0526A52468D505218EB
:10168800FD0B52188D6E53A203D0526A522A01D014
:10169800526A8D505218FE0B52188D6E53A003D00B
:1016A800526A522A01D0526A523A52468950521806
:1016B800DF0B5218896E1200536E53AE03D0526A74
:1016C800522A01D0526A524652468D505218FB0B8C
:1016D80052188D6E53AC03D0526A522A01D0526A06
:1016E80052468D505218FD0B52188D6E53AA03D0D6
:1016F800526A522A01D0526A8D505218FE0B521863
:101708008D6E53A803D0526A522A01D0526A523AB7
:10171800524689505218DF0B5218896E1200000E7B
:10172800576E000E566E52505624D96EDA6ADF5044
:10173800536E1350050D550EF324546E1E0EF420EF
:10174800556E565054265750552254C0F6FF55C072
:10175800F7FF0800F5505318D8B402D0000E120055
:10176800564A572A57BEDFD7575004E1050E565C34
:10177800D8A0D9D7010E120017D053C0F6FF54C015
:10178800F7FFF86A010EF76403D00800F55005D09A
:10179800F6CFE1FFF7CFE2FFE750C7EC0EF0000904
:1017A800D8B402D0534A542A53C0F6FF54C0F7FFA6
:1017B800F86A010EF76403D00800F55005D0F6CF9B
:1017C800E1FFF7CFE2FFE7500009D8B41200D5D700
:1017D800939493969398939A939C939E8A948A96BB
:1017E8008A988A9A8A9C8A9E000E566E000E556EBA
:1017F8005550AD0FD96EDA6ADF6A5550B30FE16EF6
:10180800E26ADFCFE7FF5550BB0F526E44EC0DF094
:10181800554A562A56BEECD7565005E1060E555C79
:10182800D8B01200E5D712006A6E730EF66E1E0E5F
:10183800F76E20EE56F0100E0900F5CFDEFFE80631
:10184800FBE26AC055F0553A0F0E55160F0E5516A5
:101858005550560FD96EDA6ADF50676E6AC055F078
:101868000F0E55165550560FD96EDA6ADF50686E4E
:10187800696A670E536E546AC0EC0BF01200000ED2
:10188800576E040E566E52505624D96EDA6ADF50DF
:10189800536E53380F0B0F0B546E52505624D96E9B
:1018A800DA6ADF500F0B556E090E556403D0555098
:1018B800370F1200090E546403D05450370F12002A
:1018C8005606D8A0570657AEDED7300E12008A82C9
:1018D8008C8ADEEC0DF08D0E576E2A0E72EC09F034
:1018E8003E0E576E2B0E72EC09F01E0E576E2D0E23
:1018F80072EC09F0000E576E2C0E72EC09F0400ED7
:10190800576E150E72EC09F03D0E576E110E72EC03
:1019180009F0F0EC0EF0B5EC0EF012005E6EF29EDF
:1019280007C05AF008C05BF009C05CF00AC05DF05F
:10193800F28E5E50050DF350800FD96EDA6ADECF55
:1019480056F0DECF57F0DECF58F0DECF59F05650C4
:101958005A5C526E57505B58536E58505C58546ED0
:1019680059505D58556E1200586E8A908A92585098
:1019780058247E0B2C6E080E2D6E2CAE03D0576AA1
:10198800572A01D0576A573257328C5057187F0B55
:1019980057188C6E8A80D8902C36030EF3EC0DF015
:1019A8008A90030EF3EC0DF02D062D50D8B41200DA
:1019B800E4D70000000000000102030405060A0A3B
:1019C8000A0A0A0A01010101010100020406080AC3
:1019D80000020406080A00000000000001020304D7
:1019E80005060A0A0A0A0A0A0101010101010002A0
:1019F8000406080A00020406080A9684968296805D
:101A0800928A89948986515066EC0EF08988898873
:101A1800000E84B4010E5F6E899889988988898838
:101A280089988998515092EC0CF0525053105410E8
:101A38005510D8A412005F50D8B41200E7D7586EDA
:101A4800080E2B6E58AE03D0576A572A01D0576A32
:101A5800573257328C5057187F0B57188C6E8A8024
:101A6800D8905836030EF3EC0DF08A90030EF3EC81
:101A78000DF02B062B50D8A4E5D78A828A80120055
:101A8800546A05D0542A090E5418D8B41200545078
:101A9800050DF350840FD96EDA6ADE04D8B4F2D794
:101AA8005450050DF350840FD96EDA6A010EDF6EBB
:101AB8005250D96EDA6A54C0DFFF1200656E655065
:101AC80066EC0EF05FC061F060C062F0000E62BEAE
:101AD800FF0E636E646E655092EC0CF06150525CC0
:101AE800625053586350545864505558D8B0120037
:101AF800E9D7090E1C18D8A409D01C6A020E1D18B3
:101B0800D8A402D01D6A12001D2A1200020E1D1848
:101B1800D8A407D0030E1C18D8A403D01D6A1C6AC9
:101B280012001C2A1200546E969496929690929ADD
:101B3800898489968988545060EC0BF08988899843
:101B48008998898854502DEC0BF089888998968457
:101B580096829680928A1200546E969496929690E7
:101B6800929A899489968988545060EC0BF08988F8
:101B780089988998898854502DEC0BF08988899820
:101B8800968496829680928A1200526A5250050D67
:101B9800F350840FD96EDA6ADF6A522A080E52644B
:101BA800F5D7880ED56EB10ED76EE00ED66EF294CC
:101BB800F28A12008C8A010EF3EC0DF08C9A010E59
:101BC800F3EC0DF08C8A010EF3EC0DF00F0E576E4E
:101BD800010E72EC09F0010EF3EC0DF01200556ED7
:101BE800566A02D00000562A5550100D5650526EB3
:101BF800536AF350525C5350800A546EF450800A72
:101C08005458D8B01200EED7500E526E44EC0DF076
:101C18009488958295849596949A959895908C96A3
:101C28008B9A8C988C90276A296A246A1200215012
:101C3800D8A406D02050D8A403D01F50D8B412007E
:101C48001F6A206A216A910E536E1E0E546EC0ECF4
:101C58000BF012004F6A1A6A1B6A1C6A1D6A1F6A17
:101C6800206A186A176A226A236A146A010E216EAA
:101C78004E0E526E44EC0DF01200010E176E090E56
:101C88001A18D8A40BD01A6A050E1B18D8A404D0A9
:101C98001B6A7DEC0DF012001B2A12001A2A120092
:101CA8000000000000000102030405060A0A0A0AEF
:101CB8000A0A01010101010100020406080A0002E2
:101CC8000406080A526EF29E5250050DF350800F1A
:101CD800D96EDA6A07C0DEFF08C0DEFF09C0DEFF82
:101CE8000AC0DEFFF28E12005E6E5E5028EC09F02C
:101CF8005D6E5C50FF0A5D14576E5E5072EC09F021
:101D0800120001EC0DF0010EB0EC0DF0000E606E4B
:101D1800030E5F6E515062EC0DF012005E6E5E5065
:101D280028EC09F05D6E5D505C10576E5E5072ECE9
:101D380009F01200B10ED76EE00ED66EF294010EC5
:101D48000726000E082209220A221200948C948E7B
:101D5800400EAF6EB896AC94AC98AB8EAC8AAB889C
:101D68001200140E28EC09F0030E5C6E140E92ECAF
:101D78000EF01200010E526E83A483B202D082A824
:101D8800526A52501200526EACA204D052C0ADFF3B
:101D9800010E1200000E1200526E1B0E5218D8A42B
:101DA8001200010E206E236A1200536E5350AD0FBD
:101DB800D96EDA6A52C0DFFF12009EAA1200525092
:101DC800D96EDA6AAECFDFFF12001750D8B412000E
:101DD800176AD6EC01F01200030E5C6E140E78EC54
:101DE8000EF01200958C959E93909392959A1200FE
:101DF8005250D96EDA6A28C0DFFF120001EC0DF0EC
:101E08000E0EB0EC0DF01200F6EC0EF06BEC0CF0D0
:0E1E18001200D08EF28CF28E12000202010136
:101E5400000000000000E3C226DBDC036DD2D9657C
:101E64003DE6973F73CCD3963FB688056ACA2D30BA
:101E740031323334353637383941424344454600EC
:101E84003132333435363738392A30230A1B5B3242
:101E94004A1B5B480D0A2D2D2D2D2D2D2D2D2D2D5D
:101EA4002D2D2D2D2D2D0D0A4D656EFA2070726984
:101EB4006E636970616C0D0A2D2D2D2D2D2D2D2D28
:101EC4002D2D2D2D2D2D2D2D0D0A5472696120756A
:101ED4006E61206F706369F33A0D0A09312E205147
:101EE40075692068692068612061206C61207361D4
:101EF4006C613F0D0A09322E204D6F73747261724A
:101F040020636F6E66696775726163696F6E730DC6
:101F14000A09332E204D6F64696669636172206813
:101F24006F72612064656C2073697374656D610DF3
:101F34000A4F706369F33A20000D0A456E746572A6
:101F4400207065722061706C696361722E2E2E2080
:101F5400000D0A486F72612064656C2073697374A4
:101F6400656D613A20000D0A43616E7669732061E4
:101F7400706C69636174732E000D0A52657320617D
:101F8400206D6F7374726172003A000D0A0D0A5469
:101F9400617267657461204E4F207265636F6E6570
:101FA40067756461210D0A095549443A20000D0AF8
:101FB4000D0A5461726765746120646574656374A5
:101FC40061646121000D0A5573756172692073752E
:101FD40072742E000D0A4E6F7520757375617269E7
:101FE4002E000D0A0D0A4F706369F33A20000D0AA2
:0C1FF4000900202D20000D0A002D000027
:020000040020DA
:08000000FFFFFFFFFFFFFFFF00
:020000040030CA
:0E000000FF06191EFF8181FF03C003E00340CD
:00000001FF
